:100000000C9434000C944F000C944F000C944F004F
:100010000C944F000C944F000C944F000C944F0024
:100020000C944F000C944F000C944F000C944F0014
:100030000C944F000C944F000C944F000C944F0004
:100040000C944F000C944F000C944F000C944F00F4
:100050000C944F000C944F000C944F000C944F00E4
:100060000C944F000C944F0011241FBECFEFD8E02A
:10007000DEBFCDBF0E9440000C943E00F894FFCF3D
:100080008FEF84B980E085B92FEF31EE94E02150F5
:0E00900030409040E1F700C000008F5FF4CFD9
:04009E000C940000BE
:00000001FF
